{
  "abi": [
    {
      "anonymous": false,
      "inputs": [
        {
          "indexed": true,
          "internalType": "address",
          "name": "owner",
          "type": "address"
        },
        {
          "indexed": true,
          "internalType": "address",
          "name": "spender",
          "type": "address"
        },
        {
          "indexed": true,
          "internalType": "uint256",
          "name": "id",
          "type": "uint256"
        }
      ],
      "name": "Approval",
      "type": "event"
    },
    {
      "anonymous": false,
      "inputs": [
        {
          "indexed": true,
          "internalType": "address",
          "name": "owner",
          "type": "address"
        },
        {
          "indexed": true,
          "internalType": "address",
          "name": "operator",
          "type": "address"
        },
        {
          "indexed": false,
          "internalType": "bool",
          "name": "approved",
          "type": "bool"
        }
      ],
      "name": "ApprovalForAll",
      "type": "event"
    },
    {
      "anonymous": false,
      "inputs": [
        {
          "indexed": true,
          "internalType": "address",
          "name": "previousOwner",
          "type": "address"
        },
        {
          "indexed": true,
          "internalType": "address",
          "name": "newOwner",
          "type": "address"
        }
      ],
      "name": "OwnershipTransferred",
      "type": "event"
    },
    {
      "anonymous": false,
      "inputs": [
        {
          "indexed": true,
          "internalType": "address",
          "name": "from",
          "type": "address"
        },
        {
          "indexed": true,
          "internalType": "address",
          "name": "to",
          "type": "address"
        },
        {
          "indexed": true,
          "internalType": "uint256",
          "name": "id",
          "type": "uint256"
        }
      ],
      "name": "Transfer",
      "type": "event"
    },
    {
      "inputs": [
        {
          "internalType": "address",
          "name": "spender",
          "type": "address"
        },
        {
          "internalType": "uint256",
          "name": "id",
          "type": "uint256"
        }
      ],
      "name": "approve",
      "outputs": [],
      "stateMutability": "nonpayable",
      "type": "function"
    },
    {
      "inputs": [
        {
          "internalType": "address",
          "name": "owner",
          "type": "address"
        }
      ],
      "name": "balanceOf",
      "outputs": [
        {
          "internalType": "uint256",
          "name": "",
          "type": "uint256"
        }
      ],
      "stateMutability": "view",
      "type": "function"
    },
    {
      "inputs": [
        {
          "internalType": "uint256",
          "name": "id",
          "type": "uint256"
        }
      ],
      "name": "burnOption",
      "outputs": [],
      "stateMutability": "nonpayable",
      "type": "function"
    },
    {
      "inputs": [
        {
          "internalType": "uint256",
          "name": "",
          "type": "uint256"
        }
      ],
      "name": "getApproved",
      "outputs": [
        {
          "internalType": "address",
          "name": "",
          "type": "address"
        }
      ],
      "stateMutability": "view",
      "type": "function"
    },
    {
      "inputs": [
        {
          "internalType": "uint256",
          "name": "id",
          "type": "uint256"
        }
      ],
      "name": "getOptionDetails",
      "outputs": [
        {
          "components": [
            {
              "internalType": "enum libTypes.OptionType",
              "name": "optionType",
              "type": "uint8"
            },
            {
              "internalType": "contract IERC20",
              "name": "assetAddr",
              "type": "address"
            },
            {
              "internalType": "uint256",
              "name": "amount",
              "type": "uint256"
            },
            {
              "internalType": "uint256",
              "name": "strikePrice",
              "type": "uint256"
            },
            {
              "internalType": "uint256",
              "name": "expiration",
              "type": "uint256"
            },
            {
              "internalType": "address",
              "name": "assetObligator",
              "type": "address"
            }
          ],
          "internalType": "struct libTypes.Options",
          "name": "",
          "type": "tuple"
        }
      ],
      "stateMutability": "nonpayable",
      "type": "function"
    },
    {
      "inputs": [
        {
          "internalType": "address",
          "name": "",
          "type": "address"
        },
        {
          "internalType": "address",
          "name": "",
          "type": "address"
        }
      ],
      "name": "isApprovedForAll",
      "outputs": [
        {
          "internalType": "bool",
          "name": "",
          "type": "bool"
        }
      ],
      "stateMutability": "view",
      "type": "function"
    },
    {
      "inputs": [
        {
          "internalType": "address",
          "name": "_recipient",
          "type": "address"
        },
        {
          "internalType": "enum libTypes.OptionType",
          "name": "_optionType",
          "type": "uint8"
        },
        {
          "internalType": "contract IERC20",
          "name": "_assetAddr",
          "type": "address"
        },
        {
          "internalType": "uint256",
          "name": "_amount",
          "type": "uint256"
        },
        {
          "internalType": "uint256",
          "name": "_strikePrice",
          "type": "uint256"
        },
        {
          "internalType": "uint256",
          "name": "_expiration",
          "type": "uint256"
        },
        {
          "internalType": "address",
          "name": "_assetObligator",
          "type": "address"
        }
      ],
      "name": "mint",
      "outputs": [
        {
          "internalType": "uint256",
          "name": "",
          "type": "uint256"
        }
      ],
      "stateMutability": "nonpayable",
      "type": "function"
    },
    {
      "inputs": [],
      "name": "name",
      "outputs": [
        {
          "internalType": "string",
          "name": "",
          "type": "string"
        }
      ],
      "stateMutability": "view",
      "type": "function"
    },
    {
      "inputs": [
        {
          "internalType": "uint256",
          "name": "",
          "type": "uint256"
        }
      ],
      "name": "optionDetails",
      "outputs": [
        {
          "internalType": "enum libTypes.OptionType",
          "name": "optionType",
          "type": "uint8"
        },
        {
          "internalType": "contract IERC20",
          "name": "assetAddr",
          "type": "address"
        },
        {
          "internalType": "uint256",
          "name": "amount",
          "type": "uint256"
        },
        {
          "internalType": "uint256",
          "name": "strikePrice",
          "type": "uint256"
        },
        {
          "internalType": "uint256",
          "name": "expiration",
          "type": "uint256"
        },
        {
          "internalType": "address",
          "name": "assetObligator",
          "type": "address"
        }
      ],
      "stateMutability": "view",
      "type": "function"
    },
    {
      "inputs": [],
      "name": "owner",
      "outputs": [
        {
          "internalType": "address",
          "name": "",
          "type": "address"
        }
      ],
      "stateMutability": "view",
      "type": "function"
    },
    {
      "inputs": [
        {
          "internalType": "uint256",
          "name": "id",
          "type": "uint256"
        }
      ],
      "name": "ownerOf",
      "outputs": [
        {
          "internalType": "address",
          "name": "owner",
          "type": "address"
        }
      ],
      "stateMutability": "view",
      "type": "function"
    },
    {
      "inputs": [],
      "name": "renounceOwnership",
      "outputs": [],
      "stateMutability": "nonpayable",
      "type": "function"
    },
    {
      "inputs": [
        {
          "internalType": "address",
          "name": "from",
          "type": "address"
        },
        {
          "internalType": "address",
          "name": "to",
          "type": "address"
        },
        {
          "internalType": "uint256",
          "name": "id",
          "type": "uint256"
        }
      ],
      "name": "safeTransferFrom",
      "outputs": [],
      "stateMutability": "nonpayable",
      "type": "function"
    },
    {
      "inputs": [
        {
          "internalType": "address",
          "name": "from",
          "type": "address"
        },
        {
          "internalType": "address",
          "name": "to",
          "type": "address"
        },
        {
          "internalType": "uint256",
          "name": "id",
          "type": "uint256"
        },
        {
          "internalType": "bytes",
          "name": "data",
          "type": "bytes"
        }
      ],
      "name": "safeTransferFrom",
      "outputs": [],
      "stateMutability": "nonpayable",
      "type": "function"
    },
    {
      "inputs": [
        {
          "internalType": "address",
          "name": "operator",
          "type": "address"
        },
        {
          "internalType": "bool",
          "name": "approved",
          "type": "bool"
        }
      ],
      "name": "setApprovalForAll",
      "outputs": [],
      "stateMutability": "nonpayable",
      "type": "function"
    },
    {
      "inputs": [
        {
          "internalType": "bytes4",
          "name": "interfaceId",
          "type": "bytes4"
        }
      ],
      "name": "supportsInterface",
      "outputs": [
        {
          "internalType": "bool",
          "name": "",
          "type": "bool"
        }
      ],
      "stateMutability": "view",
      "type": "function"
    },
    {
      "inputs": [],
      "name": "symbol",
      "outputs": [
        {
          "internalType": "string",
          "name": "",
          "type": "string"
        }
      ],
      "stateMutability": "view",
      "type": "function"
    },
    {
      "inputs": [
        {
          "internalType": "uint256",
          "name": "id",
          "type": "uint256"
        }
      ],
      "name": "tokenURI",
      "outputs": [
        {
          "internalType": "string",
          "name": "",
          "type": "string"
        }
      ],
      "stateMutability": "pure",
      "type": "function"
    },
    {
      "inputs": [
        {
          "internalType": "address",
          "name": "from",
          "type": "address"
        },
        {
          "internalType": "address",
          "name": "to",
          "type": "address"
        },
        {
          "internalType": "uint256",
          "name": "id",
          "type": "uint256"
        }
      ],
      "name": "transferFrom",
      "outputs": [],
      "stateMutability": "nonpayable",
      "type": "function"
    },
    {
      "inputs": [
        {
          "internalType": "address",
          "name": "newOwner",
          "type": "address"
        }
      ],
      "name": "transferOwnership",
      "outputs": [],
      "stateMutability": "nonpayable",
      "type": "function"
    }
  ],
  "bytecode": {
    "object": "0x60806040523480156200001157600080fd5b50604080518082018252600d81526c4458204465726976617469766560981b602080830191825283518085019094526004845263222c222b60e11b9084015281519192916200006391600091620000f2565b50805162000079906001906020840190620000f2565b50505062000096620000906200009c60201b60201c565b620000a0565b620001d4565b3390565b600680546001600160a01b038381166001600160a01b0319831681179093556040519116919082907f8be0079c531659141344cd1fd0a4f28419497f9722a3daafe3b4186f6b6457e090600090a35050565b828054620001009062000198565b90600052602060002090601f0160209004810192826200012457600085556200016f565b82601f106200013f57805160ff19168380011785556200016f565b828001600101855582156200016f579182015b828111156200016f57825182559160200191906001019062000152565b506200017d92915062000181565b5090565b5b808211156200017d576000815560010162000182565b600181811c90821680620001ad57607f821691505b602082108103620001ce57634e487b7160e01b600052602260045260246000fd5b50919050565b61148d80620001e46000396000f3fe608060405234801561001057600080fd5b506004361061012c5760003560e01c806370a08231116100ad578063a22cb46511610071578063a22cb465146102e6578063b88d4fde146102f9578063c87b56dd1461030c578063e985e9c51461031f578063f2fde38b1461034d57600080fd5b806370a082311461029f578063715018a6146102b257806381ae634d146102ba5780638da5cb5b146102cd57806395d89b41146102de57600080fd5b806323b872dd116100f457806323b872dd146102255780633be146fe1461023857806342842e0e14610258578063490ba9c41461026b5780636352211e1461028c57600080fd5b806301ffc9a714610131578063065170f41461015957806306fdde03146101ba578063081812fc146101cf578063095ea7b314610210575b600080fd5b61014461013f366004610fce565b610360565b60405190151581526020015b60405180910390f35b6101a8610167366004610ff2565b6007602052600090815260409020805460018201546002830154600384015460049094015460ff8416946001600160a01b0361010090950485169490911686565b60405161015096959493929190611043565b6101c26103b2565b6040516101509190611086565b6101f86101dd366004610ff2565b6004602052600090815260409020546001600160a01b031681565b6040516001600160a01b039091168152602001610150565b61022361021e3660046110f0565b610440565b005b61022361023336600461111c565b610527565b61024b610246366004610ff2565b6106ee565b604051610150919061115d565b61022361026636600461111c565b6107ae565b61027e6102793660046111b5565b610883565b604051908152602001610150565b6101f861029a366004610ff2565b6109a1565b61027e6102ad366004611234565b6109f8565b610223610a5b565b6102236102c8366004610ff2565b610a6f565b6006546001600160a01b03166101f8565b6101c2610a83565b6102236102f4366004611251565b610a90565b61022361030736600461128f565b610afc565b6101c261031a366004610ff2565b610bc1565b61014461032d36600461132e565b600560209081526000928352604080842090915290825290205460ff1681565b61022361035b366004611234565b610bee565b60006301ffc9a760e01b6001600160e01b03198316148061039157506380ac58cd60e01b6001600160e01b03198316145b806103ac5750635b5e139f60e01b6001600160e01b03198316145b92915050565b600080546103bf9061135c565b80601f01602080910402602001604051908101604052809291908181526020018280546103eb9061135c565b80156104385780601f1061040d57610100808354040283529160200191610438565b820191906000526020600020905b81548152906001019060200180831161041b57829003601f168201915b505050505081565b6000818152600260205260409020546001600160a01b03163381148061048957506001600160a01b038116600090815260056020908152604080832033845290915290205460ff165b6104cb5760405162461bcd60e51b815260206004820152600e60248201526d1393d517d055551213d49256915160921b60448201526064015b60405180910390fd5b60008281526004602052604080822080546001600160a01b0319166001600160a01b0387811691821790925591518593918516917f8c5be1e5ebec7d5bd14f71427d1e84f3dd0314c0f7b2291e5b200ac8c7c3b92591a4505050565b6000818152600260205260409020546001600160a01b0384811691161461057d5760405162461bcd60e51b815260206004820152600a60248201526957524f4e475f46524f4d60b01b60448201526064016104c2565b6001600160a01b0382166105c75760405162461bcd60e51b81526020600482015260116024820152701253959053125117d49150d25412515395607a1b60448201526064016104c2565b336001600160a01b038416148061060157506001600160a01b038316600090815260056020908152604080832033845290915290205460ff165b8061062257506000818152600460205260409020546001600160a01b031633145b61065f5760405162461bcd60e51b815260206004820152600e60248201526d1393d517d055551213d49256915160921b60448201526064016104c2565b6001600160a01b0380841660008181526003602090815260408083208054600019019055938616808352848320805460010190558583526002825284832080546001600160a01b03199081168317909155600490925284832080549092169091559251849392917fddf252ad1be2c89b69c2b068fc378daa952ba7f163c4a11628f55a4df523b3ef91a4505050565b6040805160c081018252600080825260208201819052918101829052606081018290526080810182905260a081019190915260008281526007602052604090819020815160c081019092528054829060ff1660018111156107515761075161100b565b60018111156107625761076261100b565b815281546001600160a01b036101009091048116602083015260018301546040830152600283015460608301526003830154608083015260049092015490911660a09091015292915050565b6107b9838383610527565b6001600160a01b0382163b15806108625750604051630a85bd0160e11b8082523360048301526001600160a01b03858116602484015260448301849052608060648401526000608484015290919084169063150b7a029060a4016020604051808303816000875af1158015610832573d6000803e3d6000fd5b505050506040513d601f19601f820116820180604052508101906108569190611396565b6001600160e01b031916145b61087e5760405162461bcd60e51b81526004016104c2906113b3565b505050565b600061088d610c64565b600061089860085490565b90506108a48982610cbe565b6108b2600880546001019055565b6040518060c001604052808960018111156108cf576108cf61100b565b81526001600160a01b03808a1660208084019190915260408084018b9052606084018a90526080840189905291871660a09093019290925260008481526007909252902081518154829060ff1916600183818111156109305761093061100b565b021790555060208201518154610100600160a81b0319166101006001600160a01b039283160217825560408301516001830155606083015160028301556080830151600383015560a090920151600490910180546001600160a01b0319169190921617905598975050505050505050565b6000818152600260205260409020546001600160a01b0316806109f35760405162461bcd60e51b815260206004820152600a6024820152691393d517d3525395115160b21b60448201526064016104c2565b919050565b60006001600160a01b038216610a3f5760405162461bcd60e51b815260206004820152600c60248201526b5a45524f5f4144445245535360a01b60448201526064016104c2565b506001600160a01b031660009081526003602052604090205490565b610a63610c64565b610a6d6000610d8e565b565b610a77610c64565b610a8081610de0565b50565b600180546103bf9061135c565b3360008181526005602090815260408083206001600160a01b03871680855290835292819020805460ff191686151590811790915590519081529192917f17307eab39ab6107e8899845ad3d59bd9653f200f220920489ca2b5937696c31910160405180910390a35050565b610b07858585610527565b6001600160a01b0384163b1580610b9e5750604051630a85bd0160e11b808252906001600160a01b0386169063150b7a0290610b4f9033908a908990899089906004016113dd565b6020604051808303816000875af1158015610b6e573d6000803e3d6000fd5b505050506040513d601f19601f82011682018060405250810190610b929190611396565b6001600160e01b031916145b610bba5760405162461bcd60e51b81526004016104c2906113b3565b5050505050565b6060610bcd8280611431565b505060408051808201909152600381526255524960e81b6020820152919050565b610bf6610c64565b6001600160a01b038116610c5b5760405162461bcd60e51b815260206004820152602660248201527f4f776e61626c653a206e6577206f776e657220697320746865207a65726f206160448201526564647265737360d01b60648201526084016104c2565b610a8081610d8e565b6006546001600160a01b03163314610a6d5760405162461bcd60e51b815260206004820181905260248201527f4f776e61626c653a2063616c6c6572206973206e6f7420746865206f776e657260448201526064016104c2565b610cc88282610ead565b6001600160a01b0382163b1580610d6e5750604051630a85bd0160e11b80825233600483015260006024830181905260448301849052608060648401526084830152906001600160a01b0384169063150b7a029060a4016020604051808303816000875af1158015610d3e573d6000803e3d6000fd5b505050506040513d601f19601f82011682018060405250810190610d629190611396565b6001600160e01b031916145b610d8a5760405162461bcd60e51b81526004016104c2906113b3565b5050565b600680546001600160a01b038381166001600160a01b0319831681179093556040519116919082907f8be0079c531659141344cd1fd0a4f28419497f9722a3daafe3b4186f6b6457e090600090a35050565b6000818152600260205260409020546001600160a01b031680610e325760405162461bcd60e51b815260206004820152600a6024820152691393d517d3525395115160b21b60448201526064016104c2565b6001600160a01b038116600081815260036020908152604080832080546000190190558583526002825280832080546001600160a01b031990811690915560049092528083208054909216909155518492907fddf252ad1be2c89b69c2b068fc378daa952ba7f163c4a11628f55a4df523b3ef908390a45050565b6001600160a01b038216610ef75760405162461bcd60e51b81526020600482015260116024820152701253959053125117d49150d25412515395607a1b60448201526064016104c2565b6000818152600260205260409020546001600160a01b031615610f4d5760405162461bcd60e51b815260206004820152600e60248201526d1053149150511657d3525395115160921b60448201526064016104c2565b6001600160a01b038216600081815260036020908152604080832080546001019055848352600290915280822080546001600160a01b0319168417905551839291907fddf252ad1be2c89b69c2b068fc378daa952ba7f163c4a11628f55a4df523b3ef908290a45050565b6001600160e01b031981168114610a8057600080fd5b600060208284031215610fe057600080fd5b8135610feb81610fb8565b9392505050565b60006020828403121561100457600080fd5b5035919050565b634e487b7160e01b600052602160045260246000fd5b6002811061103f57634e487b7160e01b600052602160045260246000fd5b9052565b60c081016110518289611021565b60018060a01b03808816602084015286604084015285606084015284608084015280841660a084015250979650505050505050565b600060208083528351808285015260005b818110156110b357858101830151858201604001528201611097565b818111156110c5576000604083870101525b50601f01601f1916929092016040019392505050565b6001600160a01b0381168114610a8057600080fd5b6000806040838503121561110357600080fd5b823561110e816110db565b946020939093013593505050565b60008060006060848603121561113157600080fd5b833561113c816110db565b9250602084013561114c816110db565b929592945050506040919091013590565b600060c082019050611170828451611021565b6020838101516001600160a01b039081169184019190915260408085015190840152606080850151908401526080808501519084015260a09384015116919092015290565b600080600080600080600060e0888a0312156111d057600080fd5b87356111db816110db565b96506020880135600281106111ef57600080fd5b955060408801356111ff816110db565b9450606088013593506080880135925060a0880135915060c0880135611224816110db565b8091505092959891949750929550565b60006020828403121561124657600080fd5b8135610feb816110db565b6000806040838503121561126457600080fd5b823561126f816110db565b91506020830135801515811461128457600080fd5b809150509250929050565b6000806000806000608086880312156112a757600080fd5b85356112b2816110db565b945060208601356112c2816110db565b935060408601359250606086013567ffffffffffffffff808211156112e657600080fd5b818801915088601f8301126112fa57600080fd5b81358181111561130957600080fd5b89602082850101111561131b57600080fd5b9699959850939650602001949392505050565b6000806040838503121561134157600080fd5b823561134c816110db565b91506020830135611284816110db565b600181811c9082168061137057607f821691505b60208210810361139057634e487b7160e01b600052602260045260246000fd5b50919050565b6000602082840312156113a857600080fd5b8151610feb81610fb8565b60208082526010908201526f155394d0519157d49150d2541251539560821b604082015260600190565b6001600160a01b038681168252851660208201526040810184905260806060820181905281018290526000828460a0840137600060a0848401015260a0601f19601f85011683010190509695505050505050565b6000821982111561145257634e487b7160e01b600052601160045260246000fd5b50019056fea26469706673582212205f38686970078cf5664376cd6af15da8facc124fa1e53cbd53a65865acbbc9de64736f6c634300080d0033",
    "linkReferences": {}
  },
  "methodIdentifiers": {
    "approve(address,uint256)": "095ea7b3",
    "balanceOf(address)": "70a08231",
    "burnOption(uint256)": "81ae634d",
    "getApproved(uint256)": "081812fc",
    "getOptionDetails(uint256)": "3be146fe",
    "isApprovedForAll(address,address)": "e985e9c5",
    "mint(address,uint8,address,uint256,uint256,uint256,address)": "490ba9c4",
    "name()": "06fdde03",
    "optionDetails(uint256)": "065170f4",
    "owner()": "8da5cb5b",
    "ownerOf(uint256)": "6352211e",
    "renounceOwnership()": "715018a6",
    "safeTransferFrom(address,address,uint256)": "42842e0e",
    "safeTransferFrom(address,address,uint256,bytes)": "b88d4fde",
    "setApprovalForAll(address,bool)": "a22cb465",
    "supportsInterface(bytes4)": "01ffc9a7",
    "symbol()": "95d89b41",
    "tokenURI(uint256)": "c87b56dd",
    "transferFrom(address,address,uint256)": "23b872dd",
    "transferOwnership(address)": "f2fde38b"
  },
  "id": 25
}