{
  "abi": [
    {
      "inputs": [],
      "stateMutability": "nonpayable",
      "type": "constructor"
    },
    {
      "anonymous": false,
      "inputs": [
        {
          "components": [
            {
              "internalType": "enum libTypes.OptionType",
              "name": "optionType",
              "type": "uint8"
            },
            {
              "internalType": "contract IERC20",
              "name": "assetAddr",
              "type": "address"
            },
            {
              "internalType": "uint256",
              "name": "amount",
              "type": "uint256"
            },
            {
              "internalType": "uint256",
              "name": "strikePrice",
              "type": "uint256"
            },
            {
              "internalType": "uint256",
              "name": "expiration",
              "type": "uint256"
            },
            {
              "internalType": "address",
              "name": "assetObligator",
              "type": "address"
            }
          ],
          "indexed": false,
          "internalType": "struct libTypes.Options",
          "name": "",
          "type": "tuple"
        },
        {
          "indexed": false,
          "internalType": "string",
          "name": "optionType",
          "type": "string"
        }
      ],
      "name": "ExecutedOptions",
      "type": "event"
    },
    {
      "anonymous": false,
      "inputs": [
        {
          "components": [
            {
              "internalType": "enum libTypes.OptionType",
              "name": "optionType",
              "type": "uint8"
            },
            {
              "internalType": "contract IERC20",
              "name": "assetAddr",
              "type": "address"
            },
            {
              "internalType": "uint256",
              "name": "amount",
              "type": "uint256"
            },
            {
              "internalType": "uint256",
              "name": "strikePrice",
              "type": "uint256"
            },
            {
              "internalType": "uint256",
              "name": "expiration",
              "type": "uint256"
            },
            {
              "internalType": "address",
              "name": "assetObligator",
              "type": "address"
            }
          ],
          "indexed": false,
          "internalType": "struct libTypes.Options",
          "name": "",
          "type": "tuple"
        },
        {
          "indexed": false,
          "internalType": "string",
          "name": "optionType",
          "type": "string"
        }
      ],
      "name": "ExpiredOptions",
      "type": "event"
    },
    {
      "anonymous": false,
      "inputs": [
        {
          "indexed": false,
          "internalType": "uint256",
          "name": "proposalId",
          "type": "uint256"
        },
        {
          "indexed": false,
          "internalType": "uint256",
          "name": "optionsId",
          "type": "uint256"
        }
      ],
      "name": "FilledProposal",
      "type": "event"
    },
    {
      "anonymous": false,
      "inputs": [
        {
          "indexed": false,
          "internalType": "uint256",
          "name": "proposalId",
          "type": "uint256"
        },
        {
          "components": [
            {
              "internalType": "enum libTypes.OptionType",
              "name": "optionType",
              "type": "uint8"
            },
            {
              "internalType": "contract IERC20",
              "name": "assetAddr",
              "type": "address"
            },
            {
              "internalType": "uint256",
              "name": "amount",
              "type": "uint256"
            },
            {
              "internalType": "uint256",
              "name": "strikePrice",
              "type": "uint256"
            },
            {
              "internalType": "uint256",
              "name": "expiration",
              "type": "uint256"
            },
            {
              "internalType": "address",
              "name": "proposer",
              "type": "address"
            },
            {
              "internalType": "bool",
              "name": "isActive",
              "type": "bool"
            }
          ],
          "indexed": false,
          "internalType": "struct DXDerivative.Proposal",
          "name": "",
          "type": "tuple"
        },
        {
          "indexed": false,
          "internalType": "string",
          "name": "OptionType",
          "type": "string"
        }
      ],
      "name": "OpenedNewBuyProposal",
      "type": "event"
    },
    {
      "anonymous": false,
      "inputs": [
        {
          "indexed": false,
          "internalType": "uint256",
          "name": "proposalId",
          "type": "uint256"
        },
        {
          "components": [
            {
              "internalType": "enum libTypes.OptionType",
              "name": "optionType",
              "type": "uint8"
            },
            {
              "internalType": "contract IERC20",
              "name": "assetAddr",
              "type": "address"
            },
            {
              "internalType": "uint256",
              "name": "amount",
              "type": "uint256"
            },
            {
              "internalType": "uint256",
              "name": "strikePrice",
              "type": "uint256"
            },
            {
              "internalType": "uint256",
              "name": "expiration",
              "type": "uint256"
            },
            {
              "internalType": "address",
              "name": "proposer",
              "type": "address"
            },
            {
              "internalType": "bool",
              "name": "isActive",
              "type": "bool"
            }
          ],
          "indexed": false,
          "internalType": "struct DXDerivative.Proposal",
          "name": "",
          "type": "tuple"
        },
        {
          "indexed": false,
          "internalType": "string",
          "name": "OptionType",
          "type": "string"
        }
      ],
      "name": "OpenedNewSellProposal",
      "type": "event"
    },
    {
      "inputs": [],
      "name": "buyProposalIds",
      "outputs": [
        {
          "internalType": "uint256",
          "name": "_value",
          "type": "uint256"
        }
      ],
      "stateMutability": "view",
      "type": "function"
    },
    {
      "inputs": [
        {
          "internalType": "uint256",
          "name": "",
          "type": "uint256"
        }
      ],
      "name": "buyProposals",
      "outputs": [
        {
          "internalType": "enum libTypes.OptionType",
          "name": "optionType",
          "type": "uint8"
        },
        {
          "internalType": "contract IERC20",
          "name": "assetAddr",
          "type": "address"
        },
        {
          "internalType": "uint256",
          "name": "amount",
          "type": "uint256"
        },
        {
          "internalType": "uint256",
          "name": "strikePrice",
          "type": "uint256"
        },
        {
          "internalType": "uint256",
          "name": "expiration",
          "type": "uint256"
        },
        {
          "internalType": "address",
          "name": "proposer",
          "type": "address"
        },
        {
          "internalType": "bool",
          "name": "isActive",
          "type": "bool"
        }
      ],
      "stateMutability": "view",
      "type": "function"
    },
    {
      "inputs": [
        {
          "internalType": "address",
          "name": "",
          "type": "address"
        }
      ],
      "name": "ethAvailableForWithdrawl",
      "outputs": [
        {
          "internalType": "uint256",
          "name": "",
          "type": "uint256"
        }
      ],
      "stateMutability": "view",
      "type": "function"
    },
    {
      "inputs": [
        {
          "internalType": "uint256",
          "name": "optionId",
          "type": "uint256"
        }
      ],
      "name": "executeCall",
      "outputs": [],
      "stateMutability": "nonpayable",
      "type": "function"
    },
    {
      "inputs": [
        {
          "internalType": "uint256",
          "name": "optionId",
          "type": "uint256"
        }
      ],
      "name": "executePut",
      "outputs": [],
      "stateMutability": "payable",
      "type": "function"
    },
    {
      "inputs": [
        {
          "internalType": "uint256",
          "name": "",
          "type": "uint256"
        }
      ],
      "name": "executedOptions",
      "outputs": [
        {
          "internalType": "bool",
          "name": "",
          "type": "bool"
        }
      ],
      "stateMutability": "view",
      "type": "function"
    },
    {
      "inputs": [
        {
          "internalType": "uint256",
          "name": "proposalId",
          "type": "uint256"
        }
      ],
      "name": "fillBuyCallProposal",
      "outputs": [
        {
          "internalType": "uint256",
          "name": "",
          "type": "uint256"
        }
      ],
      "stateMutability": "payable",
      "type": "function"
    },
    {
      "inputs": [
        {
          "internalType": "uint256",
          "name": "proposalId",
          "type": "uint256"
        }
      ],
      "name": "fillBuyPutProposal",
      "outputs": [
        {
          "internalType": "uint256",
          "name": "",
          "type": "uint256"
        }
      ],
      "stateMutability": "payable",
      "type": "function"
    },
    {
      "inputs": [
        {
          "internalType": "uint256",
          "name": "",
          "type": "uint256"
        }
      ],
      "name": "filledOptions",
      "outputs": [
        {
          "internalType": "enum libTypes.OptionType",
          "name": "optionType",
          "type": "uint8"
        },
        {
          "internalType": "contract IERC20",
          "name": "assetAddr",
          "type": "address"
        },
        {
          "internalType": "uint256",
          "name": "amount",
          "type": "uint256"
        },
        {
          "internalType": "uint256",
          "name": "strikePrice",
          "type": "uint256"
        },
        {
          "internalType": "uint256",
          "name": "expiration",
          "type": "uint256"
        },
        {
          "internalType": "address",
          "name": "assetObligator",
          "type": "address"
        }
      ],
      "stateMutability": "view",
      "type": "function"
    },
    {
      "inputs": [],
      "name": "optionFactory",
      "outputs": [
        {
          "internalType": "contract DXOptions",
          "name": "",
          "type": "address"
        }
      ],
      "stateMutability": "view",
      "type": "function"
    },
    {
      "inputs": [
        {
          "internalType": "contract IERC20",
          "name": "asset",
          "type": "address"
        },
        {
          "internalType": "uint256",
          "name": "amount",
          "type": "uint256"
        },
        {
          "internalType": "uint256",
          "name": "strikePrice",
          "type": "uint256"
        },
        {
          "internalType": "uint256",
          "name": "expiration",
          "type": "uint256"
        }
      ],
      "name": "proposeBuyCall",
      "outputs": [
        {
          "internalType": "uint256",
          "name": "",
          "type": "uint256"
        }
      ],
      "stateMutability": "nonpayable",
      "type": "function"
    },
    {
      "inputs": [
        {
          "internalType": "contract IERC20",
          "name": "asset",
          "type": "address"
        },
        {
          "internalType": "uint256",
          "name": "amount",
          "type": "uint256"
        },
        {
          "internalType": "uint256",
          "name": "strikePrice",
          "type": "uint256"
        },
        {
          "internalType": "uint256",
          "name": "expiration",
          "type": "uint256"
        }
      ],
      "name": "proposeBuyPut",
      "outputs": [
        {
          "internalType": "uint256",
          "name": "",
          "type": "uint256"
        }
      ],
      "stateMutability": "nonpayable",
      "type": "function"
    },
    {
      "inputs": [
        {
          "internalType": "uint256",
          "name": "proposalId",
          "type": "uint256"
        }
      ],
      "name": "removeProposal",
      "outputs": [],
      "stateMutability": "nonpayable",
      "type": "function"
    },
    {
      "inputs": [
        {
          "internalType": "uint256",
          "name": "optionId",
          "type": "uint256"
        }
      ],
      "name": "withdrawlExpiredOptionObligation",
      "outputs": [],
      "stateMutability": "nonpayable",
      "type": "function"
    },
    {
      "inputs": [],
      "name": "withdrawlFromExecutedOption",
      "outputs": [],
      "stateMutability": "nonpayable",
      "type": "function"
    }
  ],
  "bytecode": {
    "object": "0x608060405234801561001057600080fd5b5060405161001d9061005f565b604051809103906000f080158015610039573d6000803e3d6000fd5b50600a80546001600160a01b0319166001600160a01b039290921691909117905561006d565b611671806200228483390190565b612207806200007d6000396000f3fe6080604052600436106100e85760003560e01c80635eb9b50d1161008a578063cac3fe0211610059578063cac3fe0214610332578063cd8af11914610345578063d34dde5e14610365578063ede56e141461038557600080fd5b80635eb9b50d1461023c5780637cd4f72c146102b8578063b3461c87146102cd578063ba2fad381461030557600080fd5b80634342f10d116100c65780634342f10d1461014a5780634ce4e6c71461016c578063535d91d01461018c57806355fbe91c146101cc57600080fd5b80630ac70947146100ed578063161758e8146101135780632c30576e1461012a575b600080fd5b6101006100fb366004611af0565b610398565b6040519081526020015b60405180910390f35b34801561011f57600080fd5b506008546101009081565b34801561013657600080fd5b50610100610145366004611b1e565b6106be565b34801561015657600080fd5b5061016a610165366004611af0565b61084f565b005b34801561017857600080fd5b5061016a610187366004611af0565b610d72565b34801561019857600080fd5b506101bc6101a7366004611af0565b60046020526000908152604090205460ff1681565b604051901515815260200161010a565b3480156101d857600080fd5b5061022a6101e7366004611af0565b60026020819052600091825260409091208054600182015492820154600383015460049093015460ff8316946101009093046001600160a01b0390811694911686565b60405161010a96959493929190611b91565b34801561024857600080fd5b506102a5610257366004611af0565b6000602081905290815260409020805460018201546002830154600384015460049094015460ff808516956001600160a01b03610100909604861695909290811691600160a01b9091041687565b60405161010a9796959493929190611bd4565b3480156102c457600080fd5b5061016a610de0565b3480156102d957600080fd5b50600a546102ed906001600160a01b031681565b6040516001600160a01b03909116815260200161010a565b34801561031157600080fd5b50610100610320366004611c23565b60076020526000908152604090205481565b61016a610340366004611af0565b610ee2565b34801561035157600080fd5b5061016a610360366004611af0565b6113b2565b34801561037157600080fd5b50610100610380366004611b1e565b6117e7565b610100610393366004611af0565b611957565b600081815260208190526040808220815160e08101909252805483929190829060ff1660018111156103cc576103cc611b59565b60018111156103dd576103dd611b59565b8152815461010090046001600160a01b039081166020808401919091526001840154604080850191909152600285015460608501526003850154608085015260049485015480841660a0860152600160a01b900460ff16151560c09094019390935284015191516370a0823160e01b81523393810193909352929350909116906370a0823190602401602060405180830381865afa158015610483573d6000803e3d6000fd5b505050506040513d601f19601f820116820180604052508101906104a79190611c47565b816060015182604001516104bb9190611c76565b11156104e25760405162461bcd60e51b81526004016104d990611c95565b60405180910390fd5b60c081015115156001146105385760405162461bcd60e51b815260206004820152601b60248201527f546869732070726f706f73616c206973206e6f7420616374697665000000000060448201526064016104d9565b60008381526020818152604091829020600401805460ff60a01b191690558201516060830151918301516001600160a01b03909116916323b872dd91339130916105829190611c76565b6040518463ffffffff1660e01b81526004016105a093929190611cdf565b6020604051808303816000875af11580156105bf573d6000803e3d6000fd5b505050506040513d601f19601f820116820180604052508101906105e39190611d03565b50600a5460a082015182516020840151604080860151606087015160808801519251631242ea7160e21b81526000976001600160a01b03169663490ba9c4966106389691959094919391923390600401611d25565b6020604051808303816000875af1158015610657573d6000803e3d6000fd5b505050506040513d601f19601f8201168201806040525081019061067b9190611c47565b60408051868152602081018390529192507ff0c5c61d400009bba7dc6d87e699541a665606ceaaed36625c0c3f3ce8610270910160405180910390a19392505050565b60006106cd4262093a80611d73565b82116106eb5760405162461bcd60e51b81526004016104d990611d8b565b6040805160e08101825260018082526001600160a01b038816602083015291810186905260608101859052608081018490523360a082015260c08101919091526008546000906000818152602081905260409020835181549293508492829060ff19166001838181111561076157610761611b59565b021790555060208281015182546001600160a01b0391821661010002610100600160a81b0319909116178355604080850151600180860191909155606086015160028601556080860151600386015560a08601516004909501805460c0909701511515600160a01b026001600160a81b03199097169590931694909417949094179055336000908152600582528381208054938401815581522001829055517f43799ec0d5a508902e9674721351660df32a9bb6f534b4467d7ebca8f57b16b09061082f9083908590611e31565b60405180910390a1610845600880546001019055565b9695505050505050565b600a546040516331a9108f60e11b815260048101839052829133916001600160a01b0390911690636352211e90602401602060405180830381865afa15801561089c573d6000803e3d6000fd5b505050506040513d601f19601f820116820180604052508101906108c09190611e82565b6001600160a01b0316146108e65760405162461bcd60e51b81526004016104d990611e9f565b600a54604051631df0a37f60e11b81526004810183905242916001600160a01b031690633be146fe9060240160c0604051808303816000875af1158015610931573d6000803e3d6000fd5b505050506040513d601f19601f820116820180604052508101906109559190611ef7565b6080015111156109a75760405162461bcd60e51b815260206004820152601b60248201527f54686973206f7074696f6e20616c72656164792065787069726564000000000060448201526064016104d9565b600a546040516301945c3d60e21b81526004810184905260009182918291829182916001600160a01b03169063065170f49060240160c060405180830381865afa1580156109f9573d6000803e3d6000fd5b505050506040513d601f19601f82011682018060405250810190610a1d9190611f8f565b955050945094509450945060006001811115610a3b57610a3b611b59565b856001811115610a4d57610a4d611b59565b14610a9a5760405162461bcd60e51b815260206004820152601960248201527f54686973206973206e6f7420612043414c4c206f7074696f6e0000000000000060448201526064016104d9565b610aa48284611c76565b6040516370a0823160e01b81523360048201526001600160a01b038616906370a0823190602401602060405180830381865afa158015610ae8573d6000803e3d6000fd5b505050506040513d601f19601f82011682018060405250810190610b0c9190611c47565b1015610ba65760405162461bcd60e51b815260206004820152606060248201527f596f7520646f206e6f74206861766520656e6f75676820746f6b656e7320746f60448201527f207061792074686520636f756e7465722070617274792e20546f6b656e73204e60648201527f65656465643a2028616d6f756e742920782028737472696b6520707269636529608482015260a4016104d9565b47831115610bc65760405162461bcd60e51b81526004016104d990611ff6565b604051600090339085908381818185875af1925050503d8060008114610c08576040519150601f19603f3d011682016040523d82523d6000602084013e610c0d565b606091505b5050905080610c2e5760405162461bcd60e51b81526004016104d99061202d565b6000888152600460205260409020805460ff191660011790556001600160a01b0385166323b872dd3384610c628789611c76565b6040518463ffffffff1660e01b8152600401610c8093929190611cdf565b6020604051808303816000875af1158015610c9f573d6000803e3d6000fd5b505050506040513d601f19601f82011682018060405250810190610cc39190611d03565b50600a54604051631df0a37f60e11b8152600481018a90527fe8c7fd3d5236d02aa55c018c761a86f31257642498c80507c2d79e470f972c75916001600160a01b031690633be146fe9060240160c0604051808303816000875af1158015610d2f573d6000803e3d6000fd5b505050506040513d601f19601f82011682018060405250810190610d539190611ef7565b604051610d6091906120a8565b60405180910390a15050505050505050565b600081815260208190526040902060040154600160a01b900460ff161515600114610d9c57600080fd5b6000818152602081905260409020600401546001600160a01b03163314610dc257600080fd5b6000908152602081905260409020600401805460ff60a01b19169055565b33600090815260076020526040902054610e3c5760405162461bcd60e51b815260206004820152601e60248201527f546865726520617265206e6f2066756e647320746f207769746864726177000060448201526064016104d9565b33600090815260076020526040902054471015610e6b5760405162461bcd60e51b81526004016104d990611ff6565b336000818152600760205260408082205490519192918381818185875af1925050503d8060008114610eb9576040519150601f19603f3d011682016040523d82523d6000602084013e610ebe565b606091505b5050905080610edf5760405162461bcd60e51b81526004016104d99061202d565b50565b600a546040516331a9108f60e11b815260048101839052829133916001600160a01b0390911690636352211e90602401602060405180830381865afa158015610f2f573d6000803e3d6000fd5b505050506040513d601f19601f82011682018060405250810190610f539190611e82565b6001600160a01b031614610f795760405162461bcd60e51b81526004016104d990611e9f565b600a54604051631df0a37f60e11b81526004810183905242916001600160a01b031690633be146fe9060240160c0604051808303816000875af1158015610fc4573d6000803e3d6000fd5b505050506040513d601f19601f82011682018060405250810190610fe89190611ef7565b60800151111561103a5760405162461bcd60e51b815260206004820152601b60248201527f54686973206f7074696f6e20616c72656164792065787069726564000000000060448201526064016104d9565b600a546040516301945c3d60e21b81526004810184905260009182918291829182916001600160a01b03169063065170f49060240160c060405180830381865afa15801561108c573d6000803e3d6000fd5b505050506040513d601f19601f820116820180604052508101906110b09190611f8f565b95505094509450945094506001808111156110cd576110cd611b59565b8560018111156110df576110df611b59565b1461112c5760405162461bcd60e51b815260206004820152601860248201527f54686973206973206e6f74206120505554206f7074696f6e000000000000000060448201526064016104d9565b6111368284611c76565b6040516370a0823160e01b81523060048201526001600160a01b038616906370a0823190602401602060405180830381865afa15801561117a573d6000803e3d6000fd5b505050506040513d601f19601f8201168201806040525081019061119e9190611c47565b10156111bc5760405162461bcd60e51b81526004016104d9906120d9565b823410156112425760405162461bcd60e51b815260206004820152604760248201527f596f752063616e206e6f742073656e64696e6720656e6f75676820657468657260448201527f20746f20636f7665722028616d6f756e74292073706563696669656420696e206064820152666f7074696f6e7360c81b608482015260a4016104d9565b6000878152600460205260409020805460ff191660011790556001600160a01b0384166323b872dd30336112768688611c76565b6040518463ffffffff1660e01b815260040161129493929190611cdf565b6020604051808303816000875af11580156112b3573d6000803e3d6000fd5b505050506040513d601f19601f820116820180604052508101906112d79190611d03565b506001600160a01b03811660009081526007602052604081208054349290611300908490611d73565b9091555050600a54604051631df0a37f60e11b8152600481018990527fe8c7fd3d5236d02aa55c018c761a86f31257642498c80507c2d79e470f972c75916001600160a01b031690633be146fe9060240160c0604051808303816000875af1158015611370573d6000803e3d6000fd5b505050506040513d601f19601f820116820180604052508101906113949190611ef7565b6040516113a19190612168565b60405180910390a150505050505050565b600a546040516301945c3d60e21b815260048101839052600091829182918291829182916001600160a01b039091169063065170f49060240160c060405180830381865afa158015611408573d6000803e3d6000fd5b505050506040513d601f19601f8201168201806040525081019061142c9190611f8f565b600a546040516331a9108f60e11b8152600481018f9052969c50949a509298509096509450925033916001600160a01b0390911690636352211e90602401602060405180830381865afa158015611487573d6000803e3d6000fd5b505050506040513d601f19601f820116820180604052508101906114ab9190611e82565b6001600160a01b03161480156114c957506001600160a01b03811633145b6115155760405162461bcd60e51b815260206004820152601a60248201527f596f7520646f206e6f74206f776e2074686973206f7074696f6e00000000000060448201526064016104d9565b428211156115655760405162461bcd60e51b815260206004820152601e60248201527f546865206f7074696f6e20686173206e6f74206578706972656420796574000060448201526064016104d9565b600a546040516381ae634d60e01b8152600481018990526001600160a01b03909116906381ae634d90602401600060405180830381600087803b1580156115ab57600080fd5b505af11580156115bf573d6000803e3d6000fd5b50600092506115cc915050565b8660018111156115de576115de611b59565b0361167157478411156116035760405162461bcd60e51b81526004016104d990611ff6565b604051600090339086908381818185875af1925050503d8060008114611645576040519150601f19603f3d011682016040523d82523d6000602084013e61164a565b606091505b505090508061166b5760405162461bcd60e51b81526004016104d99061202d565b506117de565b600186600181111561168557611685611b59565b03611796576116948385611c76565b6040516370a0823160e01b81523060048201526001600160a01b038716906370a0823190602401602060405180830381865afa1580156116d8573d6000803e3d6000fd5b505050506040513d601f19601f820116820180604052508101906116fc9190611c47565b101561171a5760405162461bcd60e51b81526004016104d9906120d9565b6001600160a01b0385166323b872dd30336117358789611c76565b6040518463ffffffff1660e01b815260040161175393929190611cdf565b6020604051808303816000875af1158015611772573d6000803e3d6000fd5b505050506040513d601f19601f8201168201806040525081019061166b9190611d03565b60405162461bcd60e51b815260206004820152601960248201527f4f7074696f6e2074797065206e6f7420737570706f727465640000000000000060448201526064016104d9565b50505050505050565b60006117f64262093a80611d73565b82116118145760405162461bcd60e51b81526004016104d990611d8b565b6040805160e08101825260008082526001600160a01b038816602083015291810186905260608101859052608081018490523360a0820152600160c08201526008549091906000818152602081905260409020835181549293508492829060ff19166001838181111561188957611889611b59565b021790555060208281015182546001600160a01b0391821661010002610100600160a81b0319909116178355604080850151600180860191909155606086015160028601556080860151600386015560a08601516004909501805460c0909701511515600160a01b026001600160a81b03199097169590931694909417949094179055336000908152600582528381208054938401815581522001829055517f43799ec0d5a508902e9674721351660df32a9bb6f534b4467d7ebca8f57b16b09061082f9083908590612198565b600081815260208190526040808220815160e08101909252805483929190829060ff16600181111561198b5761198b611b59565b600181111561199c5761199c611b59565b8152815461010090046001600160a01b0390811660208301526001830154604080840191909152600284015460608401526003840154608084015260049093015490811660a0830152600160a01b900460ff16151560c0909101528101519091503490611a1190670de0b6b3a7640000611c76565b1115611a2f5760405162461bcd60e51b81526004016104d990611c95565b60c08101511515600114611a855760405162461bcd60e51b815260206004820152601b60248201527f546869732070726f706f73616c206973206e6f7420616374697665000000000060448201526064016104d9565b6000838152602081815260408083206004908101805460ff60a01b19169055600a5460a086015186519487015187850151606089015160808a01519651631242ea7160e21b81526001600160a01b039095169763490ba9c49761063897959691959091339101611d25565b600060208284031215611b0257600080fd5b5035919050565b6001600160a01b0381168114610edf57600080fd5b60008060008060808587031215611b3457600080fd5b8435611b3f81611b09565b966020860135965060408601359560600135945092505050565b634e487b7160e01b600052602160045260246000fd5b60028110611b8d57634e487b7160e01b600052602160045260246000fd5b9052565b60c08101611b9f8289611b6f565b60018060a01b03808816602084015286604084015285606084015284608084015280841660a084015250979650505050505050565b60e08101611be2828a611b6f565b6001600160a01b03978816602083015260408201969096526060810194909452608084019290925290931660a082015291151560c090920191909152919050565b600060208284031215611c3557600080fd5b8135611c4081611b09565b9392505050565b600060208284031215611c5957600080fd5b5051919050565b634e487b7160e01b600052601160045260246000fd5b6000816000190483118215151615611c9057611c90611c60565b500290565b6020808252602a908201527f457870656374656420617373657420616d6f756e7420726571756972656d656e6040820152691d1cc81b9bdd081b595d60b21b606082015260800190565b6001600160a01b039384168152919092166020820152604081019190915260600190565b600060208284031215611d1557600080fd5b81518015158114611c4057600080fd5b6001600160a01b03888116825260e0820190611d44602084018a611b6f565b80881660408401528660608401528560808401528460a084015280841660c08401525098975050505050505050565b60008219821115611d8657611d86611c60565b500190565b6020808252602b908201527f45787069726174696f6e206d757374206265206174206c65617374206120776560408201526a656b2066726f6d206e6f7760a81b606082015260800190565b611de1828251611b6f565b602081015160018060a01b0380821660208501526040830151604085015260608301516060850152608083015160808501528060a08401511660a0850152505060c0810151151560c08301525050565b6000610120848352611e466020840185611dd6565b80610100840152611e69818401600381526214155560ea1b602082015260400190565b95945050505050565b8051611e7d81611b09565b919050565b600060208284031215611e9457600080fd5b8151611c4081611b09565b60208082526029908201527f596f7520646f206e6f74206f776e2074686973206f7074696f6e20636f6e747260408201526830b1ba103a37b5b2b760b91b606082015260800190565b805160028110611e7d57600080fd5b600060c08284031215611f0957600080fd5b60405160c0810181811067ffffffffffffffff82111715611f3a57634e487b7160e01b600052604160045260246000fd5b604052611f4683611ee8565b8152611f5460208401611e72565b6020820152604083015160408201526060830151606082015260808301516080820152611f8360a08401611e72565b60a08201529392505050565b60008060008060008060c08789031215611fa857600080fd5b611fb187611ee8565b95506020870151611fc181611b09565b8095505060408701519350606087015192506080870151915060a0870151611fe881611b09565b809150509295509295509295565b6020808252601b908201527f446170702068617320696e73756666696369656e742066756e64730000000000604082015260600190565b6020808252601490820152732330b4b632b2103a379039b2b7321022ba3432b960611b604082015260600190565b612066828251611b6f565b6020818101516001600160a01b039081169184019190915260408083015190840152606080830151908401526080808301519084015260a09182015116910152565b6120b2818361205b565b60e060c08201526000611c4060e08301600481526310d0531360e21b602082015260400190565b60208082526063908201527f4461707020646f6573206e6f74206861766520656e6f75676820746f6b656e7360408201527f20746f207061792074686520636f756e7465722070617274792e20546f6b656e60608201527f73204e65656465643a2028616d6f756e742920782028737472696b652070726960808201526263652960e81b60a082015260c00190565b612172818361205b565b60e060c08201526000611c4060e08301600381526214155560ea1b602082015260400190565b60006101208483526121ad6020840185611dd6565b80610100840152611e69818401600481526310d0531360e21b60208201526040019056fea2646970667358221220b5bf52129b9729f472ad04dfa57a401bad2ce11455a9c5db1fe27e3ec4ea2d5564736f6c634300080d003360806040523480156200001157600080fd5b50604080518082018252600d81526c4458204465726976617469766560981b602080830191825283518085019094526004845263222c222b60e11b9084015281519192916200006391600091620000f2565b50805162000079906001906020840190620000f2565b50505062000096620000906200009c60201b60201c565b620000a0565b620001d4565b3390565b600680546001600160a01b038381166001600160a01b0319831681179093556040519116919082907f8be0079c531659141344cd1fd0a4f28419497f9722a3daafe3b4186f6b6457e090600090a35050565b828054620001009062000198565b90600052602060002090601f0160209004810192826200012457600085556200016f565b82601f106200013f57805160ff19168380011785556200016f565b828001600101855582156200016f579182015b828111156200016f57825182559160200191906001019062000152565b506200017d92915062000181565b5090565b5b808211156200017d576000815560010162000182565b600181811c90821680620001ad57607f821691505b602082108103620001ce57634e487b7160e01b600052602260045260246000fd5b50919050565b61148d80620001e46000396000f3fe608060405234801561001057600080fd5b506004361061012c5760003560e01c806370a08231116100ad578063a22cb46511610071578063a22cb465146102e6578063b88d4fde146102f9578063c87b56dd1461030c578063e985e9c51461031f578063f2fde38b1461034d57600080fd5b806370a082311461029f578063715018a6146102b257806381ae634d146102ba5780638da5cb5b146102cd57806395d89b41146102de57600080fd5b806323b872dd116100f457806323b872dd146102255780633be146fe1461023857806342842e0e14610258578063490ba9c41461026b5780636352211e1461028c57600080fd5b806301ffc9a714610131578063065170f41461015957806306fdde03146101ba578063081812fc146101cf578063095ea7b314610210575b600080fd5b61014461013f366004610fce565b610360565b60405190151581526020015b60405180910390f35b6101a8610167366004610ff2565b6007602052600090815260409020805460018201546002830154600384015460049094015460ff8416946001600160a01b0361010090950485169490911686565b60405161015096959493929190611043565b6101c26103b2565b6040516101509190611086565b6101f86101dd366004610ff2565b6004602052600090815260409020546001600160a01b031681565b6040516001600160a01b039091168152602001610150565b61022361021e3660046110f0565b610440565b005b61022361023336600461111c565b610527565b61024b610246366004610ff2565b6106ee565b604051610150919061115d565b61022361026636600461111c565b6107ae565b61027e6102793660046111b5565b610883565b604051908152602001610150565b6101f861029a366004610ff2565b6109a1565b61027e6102ad366004611234565b6109f8565b610223610a5b565b6102236102c8366004610ff2565b610a6f565b6006546001600160a01b03166101f8565b6101c2610a83565b6102236102f4366004611251565b610a90565b61022361030736600461128f565b610afc565b6101c261031a366004610ff2565b610bc1565b61014461032d36600461132e565b600560209081526000928352604080842090915290825290205460ff1681565b61022361035b366004611234565b610bee565b60006301ffc9a760e01b6001600160e01b03198316148061039157506380ac58cd60e01b6001600160e01b03198316145b806103ac5750635b5e139f60e01b6001600160e01b03198316145b92915050565b600080546103bf9061135c565b80601f01602080910402602001604051908101604052809291908181526020018280546103eb9061135c565b80156104385780601f1061040d57610100808354040283529160200191610438565b820191906000526020600020905b81548152906001019060200180831161041b57829003601f168201915b505050505081565b6000818152600260205260409020546001600160a01b03163381148061048957506001600160a01b038116600090815260056020908152604080832033845290915290205460ff165b6104cb5760405162461bcd60e51b815260206004820152600e60248201526d1393d517d055551213d49256915160921b60448201526064015b60405180910390fd5b60008281526004602052604080822080546001600160a01b0319166001600160a01b0387811691821790925591518593918516917f8c5be1e5ebec7d5bd14f71427d1e84f3dd0314c0f7b2291e5b200ac8c7c3b92591a4505050565b6000818152600260205260409020546001600160a01b0384811691161461057d5760405162461bcd60e51b815260206004820152600a60248201526957524f4e475f46524f4d60b01b60448201526064016104c2565b6001600160a01b0382166105c75760405162461bcd60e51b81526020600482015260116024820152701253959053125117d49150d25412515395607a1b60448201526064016104c2565b336001600160a01b038416148061060157506001600160a01b038316600090815260056020908152604080832033845290915290205460ff165b8061062257506000818152600460205260409020546001600160a01b031633145b61065f5760405162461bcd60e51b815260206004820152600e60248201526d1393d517d055551213d49256915160921b60448201526064016104c2565b6001600160a01b0380841660008181526003602090815260408083208054600019019055938616808352848320805460010190558583526002825284832080546001600160a01b03199081168317909155600490925284832080549092169091559251849392917fddf252ad1be2c89b69c2b068fc378daa952ba7f163c4a11628f55a4df523b3ef91a4505050565b6040805160c081018252600080825260208201819052918101829052606081018290526080810182905260a081019190915260008281526007602052604090819020815160c081019092528054829060ff1660018111156107515761075161100b565b60018111156107625761076261100b565b815281546001600160a01b036101009091048116602083015260018301546040830152600283015460608301526003830154608083015260049092015490911660a09091015292915050565b6107b9838383610527565b6001600160a01b0382163b15806108625750604051630a85bd0160e11b8082523360048301526001600160a01b03858116602484015260448301849052608060648401526000608484015290919084169063150b7a029060a4016020604051808303816000875af1158015610832573d6000803e3d6000fd5b505050506040513d601f19601f820116820180604052508101906108569190611396565b6001600160e01b031916145b61087e5760405162461bcd60e51b81526004016104c2906113b3565b505050565b600061088d610c64565b600061089860085490565b90506108a48982610cbe565b6108b2600880546001019055565b6040518060c001604052808960018111156108cf576108cf61100b565b81526001600160a01b03808a1660208084019190915260408084018b9052606084018a90526080840189905291871660a09093019290925260008481526007909252902081518154829060ff1916600183818111156109305761093061100b565b021790555060208201518154610100600160a81b0319166101006001600160a01b039283160217825560408301516001830155606083015160028301556080830151600383015560a090920151600490910180546001600160a01b0319169190921617905598975050505050505050565b6000818152600260205260409020546001600160a01b0316806109f35760405162461bcd60e51b815260206004820152600a6024820152691393d517d3525395115160b21b60448201526064016104c2565b919050565b60006001600160a01b038216610a3f5760405162461bcd60e51b815260206004820152600c60248201526b5a45524f5f4144445245535360a01b60448201526064016104c2565b506001600160a01b031660009081526003602052604090205490565b610a63610c64565b610a6d6000610d8e565b565b610a77610c64565b610a8081610de0565b50565b600180546103bf9061135c565b3360008181526005602090815260408083206001600160a01b03871680855290835292819020805460ff191686151590811790915590519081529192917f17307eab39ab6107e8899845ad3d59bd9653f200f220920489ca2b5937696c31910160405180910390a35050565b610b07858585610527565b6001600160a01b0384163b1580610b9e5750604051630a85bd0160e11b808252906001600160a01b0386169063150b7a0290610b4f9033908a908990899089906004016113dd565b6020604051808303816000875af1158015610b6e573d6000803e3d6000fd5b505050506040513d601f19601f82011682018060405250810190610b929190611396565b6001600160e01b031916145b610bba5760405162461bcd60e51b81526004016104c2906113b3565b5050505050565b6060610bcd8280611431565b505060408051808201909152600381526255524960e81b6020820152919050565b610bf6610c64565b6001600160a01b038116610c5b5760405162461bcd60e51b815260206004820152602660248201527f4f776e61626c653a206e6577206f776e657220697320746865207a65726f206160448201526564647265737360d01b60648201526084016104c2565b610a8081610d8e565b6006546001600160a01b03163314610a6d5760405162461bcd60e51b815260206004820181905260248201527f4f776e61626c653a2063616c6c6572206973206e6f7420746865206f776e657260448201526064016104c2565b610cc88282610ead565b6001600160a01b0382163b1580610d6e5750604051630a85bd0160e11b80825233600483015260006024830181905260448301849052608060648401526084830152906001600160a01b0384169063150b7a029060a4016020604051808303816000875af1158015610d3e573d6000803e3d6000fd5b505050506040513d601f19601f82011682018060405250810190610d629190611396565b6001600160e01b031916145b610d8a5760405162461bcd60e51b81526004016104c2906113b3565b5050565b600680546001600160a01b038381166001600160a01b0319831681179093556040519116919082907f8be0079c531659141344cd1fd0a4f28419497f9722a3daafe3b4186f6b6457e090600090a35050565b6000818152600260205260409020546001600160a01b031680610e325760405162461bcd60e51b815260206004820152600a6024820152691393d517d3525395115160b21b60448201526064016104c2565b6001600160a01b038116600081815260036020908152604080832080546000190190558583526002825280832080546001600160a01b031990811690915560049092528083208054909216909155518492907fddf252ad1be2c89b69c2b068fc378daa952ba7f163c4a11628f55a4df523b3ef908390a45050565b6001600160a01b038216610ef75760405162461bcd60e51b81526020600482015260116024820152701253959053125117d49150d25412515395607a1b60448201526064016104c2565b6000818152600260205260409020546001600160a01b031615610f4d5760405162461bcd60e51b815260206004820152600e60248201526d1053149150511657d3525395115160921b60448201526064016104c2565b6001600160a01b038216600081815260036020908152604080832080546001019055848352600290915280822080546001600160a01b0319168417905551839291907fddf252ad1be2c89b69c2b068fc378daa952ba7f163c4a11628f55a4df523b3ef908290a45050565b6001600160e01b031981168114610a8057600080fd5b600060208284031215610fe057600080fd5b8135610feb81610fb8565b9392505050565b60006020828403121561100457600080fd5b5035919050565b634e487b7160e01b600052602160045260246000fd5b6002811061103f57634e487b7160e01b600052602160045260246000fd5b9052565b60c081016110518289611021565b60018060a01b03808816602084015286604084015285606084015284608084015280841660a084015250979650505050505050565b600060208083528351808285015260005b818110156110b357858101830151858201604001528201611097565b818111156110c5576000604083870101525b50601f01601f1916929092016040019392505050565b6001600160a01b0381168114610a8057600080fd5b6000806040838503121561110357600080fd5b823561110e816110db565b946020939093013593505050565b60008060006060848603121561113157600080fd5b833561113c816110db565b9250602084013561114c816110db565b929592945050506040919091013590565b600060c082019050611170828451611021565b6020838101516001600160a01b039081169184019190915260408085015190840152606080850151908401526080808501519084015260a09384015116919092015290565b600080600080600080600060e0888a0312156111d057600080fd5b87356111db816110db565b96506020880135600281106111ef57600080fd5b955060408801356111ff816110db565b9450606088013593506080880135925060a0880135915060c0880135611224816110db565b8091505092959891949750929550565b60006020828403121561124657600080fd5b8135610feb816110db565b6000806040838503121561126457600080fd5b823561126f816110db565b91506020830135801515811461128457600080fd5b809150509250929050565b6000806000806000608086880312156112a757600080fd5b85356112b2816110db565b945060208601356112c2816110db565b935060408601359250606086013567ffffffffffffffff808211156112e657600080fd5b818801915088601f8301126112fa57600080fd5b81358181111561130957600080fd5b89602082850101111561131b57600080fd5b9699959850939650602001949392505050565b6000806040838503121561134157600080fd5b823561134c816110db565b91506020830135611284816110db565b600181811c9082168061137057607f821691505b60208210810361139057634e487b7160e01b600052602260045260246000fd5b50919050565b6000602082840312156113a857600080fd5b8151610feb81610fb8565b60208082526010908201526f155394d0519157d49150d2541251539560821b604082015260600190565b6001600160a01b038681168252851660208201526040810184905260806060820181905281018290526000828460a0840137600060a0848401015260a0601f19601f85011683010190509695505050505050565b6000821982111561145257634e487b7160e01b600052601160045260246000fd5b50019056fea26469706673582212205f38686970078cf5664376cd6af15da8facc124fa1e53cbd53a65865acbbc9de64736f6c634300080d0033",
    "linkReferences": {}
  },
  "methodIdentifiers": {
    "buyProposalIds()": "161758e8",
    "buyProposals(uint256)": "5eb9b50d",
    "ethAvailableForWithdrawl(address)": "ba2fad38",
    "executeCall(uint256)": "4342f10d",
    "executePut(uint256)": "cac3fe02",
    "executedOptions(uint256)": "535d91d0",
    "fillBuyCallProposal(uint256)": "ede56e14",
    "fillBuyPutProposal(uint256)": "0ac70947",
    "filledOptions(uint256)": "55fbe91c",
    "optionFactory()": "b3461c87",
    "proposeBuyCall(address,uint256,uint256,uint256)": "d34dde5e",
    "proposeBuyPut(address,uint256,uint256,uint256)": "2c30576e",
    "removeProposal(uint256)": "4ce4e6c7",
    "withdrawlExpiredOptionObligation(uint256)": "cd8af119",
    "withdrawlFromExecutedOption()": "7cd4f72c"
  },
  "id": 24
}